:100000000C943E000C9448000C9448000C9448005A
:100010000C9448000C9448000C9448000C94480040
:100020000C9448000C9448000C9448000C94480030
:100030000C9448000C9448000C9448000C94480020
:100040000C9448000C9448000C9448000C94480010
:100050000C9448000C9448000C9448000C94480000
:100060000C9448000C9448000C9448000C944800F0
:100070000C9448000C9448000C94480011241FBEB6
:10008000CFEFD8E0DEBFCDBF0E944A000C946B00DA
:100090000C9400008FEF81B984B987B98AB920E147
:1000A00030E180E090E0DC018BB9492F5A2F6B2FB3
:1000B000772748B9AD016627772745B922B920319E
:1000C000304131F020E130E10196A11DB11DECCFAE
:0A00D00021E031E0F9CFF894FFCFF2
:00000001FF
