:100000000C943E000C9448000C9448000C9448005A
:100010000C9448000C9448000C9448000C94480040
:100020000C9448000C9448000C9448000C94480030
:100030000C9448000C9448000C9448000C94480020
:100040000C9448000C9448000C9448000C94480010
:100050000C9448000C9448000C9448000C94480000
:100060000C9448000C9448000C9448000C944800F0
:100070000C9448000C9448000C94480011241FBEB6
:10008000CFEFD8E0DEBFCDBF0E9473000C949D007F
:100090000C9400004A9B10C02FE788E391E02150A8
:1000A00080409040E1F700C000004A9907C089B144
:1000B00082FB882780F9089580E0089581E0089503
:1000C00082B9089582E082B98FE097E20197F1F753
:1000D00000C0000081E082B98FE097E20197F1F75C
:1000E00000C0000008958FEF81B984B987B9529894
:1000F000C2E0D1E00E944A00C2B98823D9F30E942D
:100100004A00811117C00E946200D2B90E944A00C1
:100110008823D9F30E944A00C2B98111FBCF12B8DB
:100120000E944A008823D9F30E944A00D2B9811163
:0E013000FBCFE0CF0E946200E2CFF894FFCF39
:00000001FF
