:100000000C943E000C9448000C9448000C9448005A
:100010000C9448000C9448000C9448000C94480040
:100020000C9448000C9448000C9448000C94480030
:100030000C9448000C9448000C9448000C94480020
:100040000C9448000C9448000C9448000C94480010
:100050000C9448000C9448000C9448000C94480000
:100060000C9448000C9448000C9448000C944800F0
:100070000C9448000C9448000C94480011241FBEB6
:10008000CFEFD8E0DEBFCDBF0E945D000C94A20090
:100090000C94000090E0909389008093880070E0B9
:1000A00070938B0060938A0081EA8093800082E0E5
:1000B000809381001092820008958AB180638AB98A
:1000C00060E080E00E944A002FEF83ED90E3215032
:1000D00080409040E1F700C0000060E480E40E94AE
:1000E0004A002FEF83ED90E3215080409040E1F7EC
:1000F00000C0000060E880E80E944A002FEF83ED16
:1001000090E3215080409040E1F700C0000060EC97
:1001100080EC0E944A002FEF83ED90E32150804055
:100120009040E1F700C000006FEF8FEF0E944A009F
:100130002FEF83ED90E3215080409040E1F700C025
:080140000000BECFF894FFCFD0
:00000001FF
